:020000040800F2
:100000000080012021AA00081D7C00081F7C000838
:10001000217C0008237C0008257C000800000000EB
:10002000000000000000000000000000277C000825
:10003000297C0008000000002B7C00082D7C0008B3
:1000400071AA000871AA000871AA000871AA000824
:1000500071AA000871AA00080980000871AA0008A6
:1000600071AA000871AA000871AA0008497C00085A
:100070000D7D0008DD7D000871AA000871AA000846
:1000800071AA000871AA000871AA000871AA0008E4
:1000900071AA000871AA000871AA000871AA0008D4
:1000A00071AA000871AA000871AA000871AA0008C4
:1000B00071AA000871AA0008AD7E000871AA0008A4
:1000C00071AA000871AA000871AA000871AA0008A4
:1000D00071AA000871AA000871AA0008F97E000838
:1000E00071AA000871AA000871AA000871AA000884
:1000F00071AA000871AA000871AA000871AA000874
:1001000071AA000871AA000871AA000871AA000863
:1001100071AA000871AA000871AA000871AA000853
:1001200071AA000871AA000871AA000871AA000843
:1001300071AA000871AA000871AA000871AA000833
:1001400071AA000871AA000871AA000871AA000823
:1001500071AA000871AA000871AA000871AA000813
:1001600071AA000871AA000871AA000871AA000803
:1001700071AA000871AA000871AA00080000000016
:0801800071AA000871AA000831
:1001880010B5054C237833B9044B13B10448AFF3C9
:1001980000800123237010BD98010020000000009A
:1001A800CCAA000808B5034B1BB103490348AFF3B9
:1001B800008008BD000000009C010020CCAA0008B7
:1001C800FFFF00000000FF0F2DE9FF0FDFF8BC164E
:1001D8000968DFF8BC2612684FF01E00B2E8F00F7D
:1001E800A1E8F00FA0F101000028F7D1BDE8FF0F4A
:1001F80070472DE9FF01DFF8941609684FF00002F7
:100208004FF000034FF03C00DFF88886F0C94FEA52
:1002180024444FEA25454FEA26464FEA2747224419
:100228002B4432443B44A0F101000028EED1DFF812
:1002380068160C6814440C60DFF860160D681D44DD
:100248000D60DFF85C1604EB05060E60DFF8541647
:10025800671B01D5A5EB04070F60BDE8FF017047D8
:100268002DE9FF07DFF8402602F1F0014FF0040006
:10027800B1E8F007A2E8F007A0F101000028F7D1E3
:10028800DFF828164FF000034FF03C00F0C94FEAA2
:1002980014444FEA15454FEA16464FEA174722F825
:1002A800024B2B4422F8026B3B44A0F101000028CA
:1002B800ECD1DFF8FC150C681C440C60BDE8FF07A6
:1002C80070472DE9FF07DFF8EC2502F1F0014FF048
:1002D8000400B1E8F007A2E8F007A0F10100002847
:1002E800F7D1DFF8D4154FF000034FF000085FF89E
:1002F80030914FF03C00F0C904EA090A05EA090BFD
:100308004FEA14444FEA1545D04422F8024B2B44D7
:10031800D84406EA090A07EA090B4FEA16464FEAE3
:100328001747D04422F8026B3B44D844A0F101009F
:100338000028E0D1DFF884150C681C440C60DFF855
:1003480080150C6844440C60BDE8FF0770472DE930
:10035800FF0FDFF87015DFF8702512684FF01E00E8
:10036800B2E8F00FA1E8F00FA0F101000028F7D1E2
:10037800BDE8FF0F70472DE9FF0FDFF85015DFF8D4
:10038800502512684FF01E00B2E8F00FA1E8F00FF8
:10039800A0F101000028F7D1BDE8FF0F70472DE953
:1003A800FF5FDFF8302502F1F0014FF00400B1E8FB
:1003B800F007A2E8F007A0F101000028F7D1DFF864
:1003C8000C154FF0000B4FF0000C4FF0000E5FF8CB
:1003D8001032B1E800074FF03C0045464E465746FC
:1003E800B1E80007158005EA0304A64402F10202F9
:1003F8002C0CA34406EA0304A444340C148004EA35
:100408000304A64402F1020207EA0304A3443C0CD5
:10041800A444A0F101000028DFD1DFF8BC140A6869
:1004280072440A60DFF894140A685A440A60DFF8D4
:10043800AC140A6862440A60BDE8FF5F70472DE9A2
:10044800FF5FDFF8902402F1F0014FF00400B1E8FB
:10045800F007A2E8F007A0F101000028F7D1DFF8C3
:100468006C144FF0000B4FF0000C5FF8AC32F0C981
:100478004FF03C0022F8024B4FEA144805EA030902
:1004880010C9C44420C9CB4422F8026B4FEA16486D
:1004980007EA030940C9C44480C9CB44A0F101005C
:1004A8000028E7D1DFF814140A6862440A60DFF80C
:1004B8002C140A685A440A60BDE8FF5F70472DE9AA
:1004C800FF5F4FF00C0EDFF81804006800F13400ED
:1004D80000F13C01DFF80C241268F8C8B1E8001FED
:1004E8004344136002F104024C44146002F1040214
:1004F8005544156002F104025E44166002F10402DC
:100508006744176002F10402AEF1010EBEF1000F5C
:10051800E3D1BDE8FF5F70472DE9FF5F4FF0190E8B
:10052800F1480068EE49096801F134024FF000090A
:1005380008C970C9B2E880035FEA134A5FEA044B4E
:1005480057445FEA144C5F44E0445FEA054AD044EC
:10055800076000F104005FEA154AC0F8008000F166
:100568000400D1445FEA064B3346D944AEF1010E8C
:10057800C0F8009000F10400BEF1000FD9D1BDE829
:10058800FF5F70472DE9FF5F4FF00C00D549096800
:100598005FF8D4E34FF000084FF000094FF0000A6D
:1005A8004FF0000B4FF0000CF8C94DF8040D280C63
:1005B80003EA0E02A0EB0202904406EA0E001A0CAF
:1005C800A0EB0202914423462C4635463E46280CB1
:1005D80003EA0E02A0EB0202924406EA0E001A0C8D
:1005E800A0EB0202934423462C463546280C03EA26
:1005F8000E02A0EB0202944401BCA0F10100002805
:10060800D2D1BA4A1268C2F8008002F10402C2F8D4
:10061800009002F10402C2F800A002F10402C2F83C
:1006280000B002F10402C2F800C0BDE8FF5F7047E5
:100638002DE9FF5F4FF00C00AD495FF87CE44FF007
:1006480000084FF000094FF0000A4FF0000B4FF080
:10065800000CF8C94DF8040D280C03EA0E020244F8
:10066800904406EA0E001A0C0244914423462C4694
:1006780035463E46280C03EA0E020244924406EA36
:100688000E001A0C0244934423462C463546280C87
:1006980003EA0E020244944401BCA0F101000028C0
:1006A800D7D1944AC2F8008002F10402C2F800903F
:1006B80002F10402C2F800A002F10402C2F800B07C
:1006C80002F10402C2F800C0BDE8FF5F70472DE9DF
:1006D800FF5F4FF00A008449096801F13C015FF8A7
:1006E80020754FF000084FF000094FF0000A4FF056
:1006F800000B4FF0000C4FF0000E78C94DF8040DB8
:1007080006EA070003EA0702A0EB02029044300C55
:100718001A0CA0EB0202914423462C46354640C9E8
:1007280006EA070003EA0702A0EB02029244300C33
:100738001A0CA0EB0202934423462C46354640C9C6
:1007480006EA070003EA0702A0EB02029444300C11
:100758001A0CA0EB0202964401BCA0F1010000288B
:10076800CBD1654A1268C2F8008002F10402C2F8CF
:10077800009002F10402C2F800A002F10402C2F8DB
:1007880000B002F10402C2F800C002F10402C2F88B
:1007980000E0BDE8FF5F70472DE9FF5F4FF00A00FA
:1007A800564901F13C015FF8E8754FF000084FF039
:1007B80000094FF0000A4FF0000B4FF0000C4FF00B
:1007C800000E78C94DF8040D06EA070003EA07028F
:1007D80002449044300C1A0C0244914423462C469F
:1007E800354640C906EA070003EA07020244924474
:1007F800300C1A0C0244934423462C46354640C913
:1008080006EA070003EA070202449444300C1A0C73
:100818000244964401BCA0F101000028D1D1384A15
:10082800C2F8008002F10402C2F8009002F104024A
:10083800C2F800A002F10402C2F800B002F10402FA
:10084800C2F800C002F10402C2F800E0BDE8FF5F90
:1008580070472DE9FF5F2B4800682349096801F1BB
:100868003C024FF00C0EF8C9B2E8001F9844A144AE
:10087800AA44B344BC44A0E8001FAEF1010EBEF187
:10088800000FF0D1BDE8FF5F704700004C950020D5
:1008980008550020340C002004080020000800201F
:1008A800FC070020F8070020A8670020402D002042
:1008B800F407002078410020804D0020F007002038
:1008C800EC07002048510020DC6B0020D06200209B
:1008D80040510020A8A0002088010020D407002053
:1008E8005808002054080020500800204408002020
:1008F800884000200C5500204808002060B40020E3
:10090800182900204C08002081F0004102E000BFB7
:1009180083F0004330B54FEA41044FEA430594EAB7
:10092800050F08BF90EA020F1FBF54EA000C55EAF2
:10093800020C7FEA645C7FEA655C00F0E2804FEAC3
:100948005454D4EB5555B8BF6D420CDD2C4480EAA5
:10095800020281EA030382EA000083EA010180EAD5
:10096800020281EA0303362D88BF30BD11F0004F23
:100978004FEA01314FF4801C4CEA113102D0404259
:1009880061EB410113F0004F4FEA03334CEA133394
:1009980002D0524263EB430394EA050F00F0A780AC
:1009A800A4F10104D5F1200E0DDB02FA0EFC22FAA7
:1009B80005F2801841F1000103FA0EF2801843FA9B
:1009C80005F359410EE0A5F120050EF1200E012A8C
:1009D80003FA0EFC28BF4CF0020C43FA05F3C018CA
:1009E80051EBE37101F0004507D54FF0000EDCF143
:1009F800000C7EEB00006EEB0101B1F5801F1BD3EC
:100A0800B1F5001F0CD349085FEA30004FEA3C0CEF
:100A180004F101044FEA445212F5800F80F09A80E5
:100A2800BCF1004F08BF5FEA500C50F1000041EBE9
:100A3800045141EA050130BD5FEA4C0C404141EBED
:100A4800010111F4801FA4F10104E9D191F0000F14
:100A580004BF01460020B1FA81F308BF2033A3F197
:100A68000B03B3F120020CDA0C3208DD02F1140C8E
:100A7800C2F10C0201FA0CF021FA02F10CE002F1C9
:100A88001402D8BFC2F1200C01FA02F120FA0CFCC2
:100A9800DCBF41EA0C019040E41AA2BF01EB04510B
:100AA800294330BD6FEA04041F3C1CDA0C340EDC09
:100AB80004F11404C4F1200220FA04F001FA02F34C
:100AC80040EA030021FA04F345EA030130BDC4F10A
:100AD8000C04C4F1200220FA02F001FA04F340EAFF
:100AE8000300294630BD21FA04F0294630BD94F0B0
:100AF800000F83F4801306BF81F480110134013D97
:100B08004EE77FEA645C18BF7FEA655C29D094EA07
:100B1800050F08BF90EA020F05D054EA000C04BF85
:100B28001946104630BD91EA030F1EBF0021002070
:100B380030BD5FEA545C05D14000494128BF41F00F
:100B4800004130BD14F580043CBF01F5801130BD73
:100B580001F0004545F0FE4141F470014FF00000FE
:100B680030BD7FEA645C1ABF194610467FEA655CAF
:100B78001CBF0B46024650EA013406BF52EA033551
:100B880091EA030F41F4002130BD00BF90F0000F3F
:100B980004BF0021704730B54FF4806404F132047B
:100BA8004FF000054FF0000150E700BF90F0000F34
:100BB80004BF0021704730B54FF4806404F132045B
:100BC80010F0004548BF40424FF000013EE700BF2B
:100BD80042004FEAE2014FEA31014FEA02701FBFBB
:100BE80012F07F4393F07F4F81F06051704732F0ED
:100BF8007F4208BF704793F07F4F04BF41F4002144
:100C0800704730B54FF4607401F0004521F00041A1
:100C18001CE700BF50EA010208BF704730B54FF02B
:100C280000050AE050EA010208BF704730B511F02C
:100C3800004502D5404261EB41014FF4806404F164
:100C480032045FEA915C3FF4D8AE4FF003025FEAEA
:100C5800DC0C18BF03325FEADC0C18BF033202EB6E
:100C6800DC02C2F1200300FA03FC20FA02F001FAC8
:100C780003FE40EA0E0021FA02F11444BDE600BF6B
:100C880070B54FF0FF0C4CF4E06C1CEA11541DBF1A
:100C98001CEA135594EA0C0F95EA0C0F00F0DEF8E5
:100CA8002C4481EA030621EA4C5123EA4C5350EACA
:100CB800013518BF52EA033541F4801143F480131B
:100CC80038D0A0FB02CE4FF00005E1FB02E506F0AC
:100CD8000042E0FB03E54FF00006E1FB03569CF001
:100CE800000F18BF4EF0010EA4F1FF04B6F5007F07
:100CF80064F5407404D25FEA4E0E6D4146EB060679
:100D080042EAC62141EA55514FEAC52040EA5E5001
:100D18004FEACE2EB4F1FD0C88BFBCF5E06F1ED8AB
:100D2800BEF1004F08BF5FEA500E50F1000041EBE2
:100D3800045170BD06F0004646EA010140EA02008F
:100D480081EA0301B4EB5C04C2BFD4EB0C0541EAB1
:100D5800045170BD41F480114FF0000E013C00F3C6
:100D6800AB8014F1360FDEBF002001F0004170BDEA
:100D7800C4F10004203C35DA0C341BDC04F1140403
:100D8800C4F1200500FA05F320FA04F001FA05F28F
:100D980040EA020001F0004221F0004110EBD3705C
:100DA80021FA04F642EB06015EEA430E08BF20EA88
:100DB800D37070BDC4F10C04C4F1200500FA04F32B
:100DC80020FA05F001FA04F240EA020001F00041BD
:100DD80010EBD37041F100015EEA430E08BF20EA30
:100DE800D37070BDC4F1200500FA05F24EEA020E78
:100DF80020FA04F301FA05F243EA020321FA04F0A7
:100E080001F0004121FA04F220EA020000EBD3705D
:100E18005EEA430E08BF20EAD37070BD94F0000F5D
:100E28000FD101F00046400041EB010111F4801F91
:100E380008BF013CF7D041EA060195F0000F18BF42
:100E4800704703F00046520043EB030313F4801F7E
:100E580008BF013DF7D043EA0603704794EA0C0F38
:100E68000CEA135518BF95EA0C0F0CD050EA41064E
:100E780018BF52EA4306D1D181EA030101F00041CB
:100E88004FF0000070BD50EA410606BF10461946F3
:100E980052EA430619D094EA0C0F02D150EA0136FF
:100EA80013D195EA0C0F05D152EA03361CBF104640
:100EB80019460AD181EA030101F0004141F0FE41DF
:100EC80041F470014FF0000070BD41F0FE4141F463
:100ED800780170BD70B54FF0FF0C4CF4E06C1CEA63
:100EE80011541DBF1CEA135594EA0C0F95EA0C0F18
:100EF80000F0A7F8A4EB050481EA030E52EA0335D3
:100F08004FEA013100F088804FEA03334FF08055F3
:100F180045EA131343EA12634FEA022245EA111520
:100F280045EA10654FEA00260EF000419D4208BFD1
:100F3800964244F1FD0404F5407402D25B084FEA7E
:100F48003202B61A65EB03055B084FEA32024FF42A
:100F580080104FF4002CB6EB020E75EB030E22BF87
:100F6800B61A754640EA0C005B084FEA3202B6EB47
:100F7800020E75EB030E22BFB61A754640EA5C00F6
:100F88005B084FEA3202B6EB020E75EB030E22BF86
:100F9800B61A754640EA9C005B084FEA3202B6EB87
:100FA800020E75EB030E22BFB61A754640EADC0046
:100FB80055EA060E18D04FEA051545EA16754FEAA8
:100FC80006164FEAC30343EA52734FEAC2025FEAC6
:100FD8001C1CC0D111F4801F0BD141EA00014FF055
:100FE80000004FF0004CB6E711F4801F04BF014326
:100FF8000020B4F1FD0C88BFBCF5E06F3FF6AFAE42
:10100800B5EB030C04BFB6EB020C5FEA500C50F1D1
:10101800000041EB045170BD0EF0004E4EEA113154
:1010280014EB5C04C2BFD4EB0C0541EA045170BD5B
:1010380041F480114FF0000E013C90E645EA060E9F
:101048008DE60CEA135594EA0C0F08BF95EA0C0FCD
:101058003FF43BAF94EA0C0F0AD150EA01347FF415
:1010680034AF95EA0C0F7FF425AF104619462CE7EC
:1010780095EA0C0F06D152EA03353FF4FDAE10464F
:10108800194622E750EA410618BF52EA43067FF4A0
:10109800C5AE50EA41047FF40DAF52EA43057FF430
:1010A800EBAE12E74FEA4102B2F1E04324BFB3F5D9
:1010B800001CDCF1FE5C0DD901F0004C4FEAC002C7
:1010C8004CEA5070B2F1004F40EB830008BF20F0AB
:1010D8000100704711F0804F21D113F13872BCBF65
:1010E80001F00040704741F480114FEA5252C2F1BA
:1010F8001802C2F1200C10FA0CF320FA02F018BF03
:1011080040F001004FEAC1234FEAD32303FA0CFC55
:1011180040EA0C0023FA02F34FEA4303CCE77FEAE4
:10112800625307D150EA01331EBF4FF0FE4040F42E
:101138004000704701F0004040F0FE4040F40000DD
:10114800704700BF53B94AB9002908BF00281CBF1F
:101158004FF0FF314FF0FF3000F072B9ADF1080CDD
:101168006DE904CE00F006F8DDF804E0DDE90223BD
:1011780004B070472DE9F047089E04468846002BC6
:101188004BD18A42154667D9B2FA82F24AB1C2F106
:10119800200701FA02F320FA07F7954047EA030807
:1011A80094404FEA154E230CB8FBFEF71FFA85FC56
:1011B8000EFB178843EA084307FB0CF1994209D94B
:1011C800EB1807F1FF3080F01B81994240F218813B
:1011D800023F2B445B1AA4B2B3FBFEF00EFB1033A4
:1011E80044EA034400FB0CFCA44509D92C1900F17E
:1011F800FF3380F00781A44540F2048102382C4473
:1012080040EA0740A4EB0C0400271EB1D440002399
:10121800C6E900433946BDE8F0878B4209D9002E5C
:1012280000F0EB800027C6E9000138463946BDE8E2
:10123800F087B3FA83F7002F47D18B4202D382425B
:1012480000F2FA80841A61EB030301209846002E0D
:10125800E0D0C6E90048DDE702B9FFDEB2FA82F263
:10126800002A40F08F80491B4FEA154E1FFA85F877
:101278000127B1FBFEFC230C0EFB1C1143EA0143C2
:1012880008FB0CF1994207D9EB180CF1FF3002D298
:10129800994200F2CD808446591AA3B2B1FBFEF000
:1012A8000EFB101443EA044408FB00F8A04507D9D4
:1012B8002C1900F1FF3302D2A04500F2B68018467F
:1012C800A4EB080440EA0C409FE7C7F1200CBB40A0
:1012D80022FA0CFE4EEA030E01FA07F420FA0CF586
:1012E80021FA0CF34FEA1E482543B3FBF8F92C0CFE
:1012F80008FB19331FFA8EFA44EA034309FB0AF480
:101308009C4202FA07F200FA07F10BD91EEB03031D
:1013180009F1FF3080F087809C4240F28480A9F177
:10132800020973441B1BADB2B3FBF8F008FB103382
:1013380045EA034400FB0AFAA24508D91EEB040457
:1013480000F1FF336BD2A24569D90238744440EAF0
:101358000940A0FB0289A4EB0A044C45C2464B464F
:1013680054D351D0002E69D0B1EB0A0564EB0304C5
:1013780004FA0CFCFD40FC404CEA0505C6E90054A3
:10138800002747E7C2F1200320FA03F7954001FA46
:1013980002F021FA03F34FEA154E3843010CB3FB70
:1013A800FEF71FFA85F80EFB173341EA034107FBE6
:1013B80008F38B4204FA02F407D9691807F1FF3CD5
:1013C8002FD28B422DD9023F2944CB1A81B2B3FBCD
:1013D800FEF00EFB103341EA034100FB08F38B4299
:1013E80007D9691800F1FF3C17D28B4215D902388A
:1013F8002944C91A40EA07473BE73746304609E718
:101408000746E7E61846FBE64145ABD2B8EB020AC9
:1014180069EB0E0201381346A4E76046E9E718466F
:1014280095E76746D1E781467CE702382C4447E7D1
:10143800ACF1020C2B442FE7384608E73746E9E6BB
:10144800704700BF104B1B680BB90120704710B5DF
:1014580004464FF47A70B0FBF3F30C4A1068B0FB03
:10146800F3F000F07FFE68B90F2C01D901200AE0E3
:10147800002221464FF0FF3000F032FE024B5C6044
:10148800002000E0012010BD000000208C0000209A
:1014980010B5032000F012FE0A20FFF7D3FF10B1A9
:1014A8000124204610BD044606F09CFBF9E7000025
:1014B800034A1368034909680B441360704700BF67
:1014C800940D002000000020014B1868704700BFF1
:1014D800940D002038B50446FFF7F6FF0546B4F131
:1014E800FF3F02D0044B1B681C44FFF7EDFF401B75
:1014F800A042FAD338BD00BF0000002030B583B049
:1015080000230193002800F0F5800446436D03B3DF
:1015180023689A6812F0005F05D09A6822F020428A
:1015280022F03F029A602268936813F0805F1DD111
:10153800936823F0104323F03F0343F080539360F4
:101548006D4B1B689B096D4AA2FB03239B09019302
:1015580009E004F039F90023A36584F85030D7E78F
:10156800019B013B0193019B002BF9D123689A68E9
:1015780012F0805F40F08980626D42F0100262656F
:10158800A26D42F00102A26501209A6812F0040FD0
:101598007DD00121626D12F0100F40F0A480002967
:1015A80040F0A180626D22F4817242F0020262650D
:1015B8009B6813F0010F1BD1514B9B6813F0010F6F
:1015C80067D001214F4A926812F0010F63D00123BE
:1015D8000B434D4A926812F0010F5ED0012213436B
:1015E80006D1636849498A6822F47C1213438B60E8
:1015F800627E636B43EA4233E2681343A268134393
:1016080094F8202043EA0243012A48D0A26A22B172
:1016180002F47072E16A0A4313432168CD683C4AB8
:101628002A401343CB6023689A6812F0040F3BD01A
:1016380001219A6812F0080F38D00122B1B9AAB96D
:10164800217E94F83020520042EA8131DA6822F48F
:10165800804222F002020A43DA6094F83830012B03
:1016680026D02268136923F0010313612369012B33
:1016780030D02268136B23F00F031363636D23F0DC
:10168800030343F00103636532E000207DE7002196
:1016980080E7002196E700239AE700229FE7626A25
:1016A800013A43EA4243B1E70021C2E70022C5E715
:1016B80021680B6923F4FF6323F00403E26B256CB4
:1016C8002A43656C2A43A56C2A43134343F001035C
:1016D8000B61CBE721680B6B23F00F03E269013A3A
:1016E80013430B63CAE7636D43F01003636501207E
:1016F80003B030BD0120FBE78C000020632D3E05C0
:10170800000004500001045000020450000304507B
:1017180007C0F0FF7047704708B5806AFFF7FBFF06
:1017280008BD704708B5836A5A6D12F0500F31D161
:101738005A6D42F400725A651A68116811F0080F60
:1017480014D0D16811F4406F20D1D26812F4005F30
:101758001CD15A6D22F480725A655A6D12F4805F5A
:1017680014D15A6D42F001025A650FE0D26812F0A6
:10177800020F0BD15A6D22F480725A655A6D12F419
:10178800805F03D15A6D42F001025A651846FFF78F
:10179800C1FF08BD5A6D12F0100F03D1DB6C5B6BF3
:1017A8009847F6E71846FFF7BCFFF2E708B5806AE6
:1017B800436D43F040034365836D43F00403836541
:1017C800FFF7AFFF08BD0000F0B482B0002201921D
:1017D80090F85020012A00F018820346012280F870
:1017E80050200268926812F0040F0AD0426D42F04D
:1017F800200242650120002283F8502002B0F0BC8C
:1018080070474A68052A09D8023A032A00F28E80EE
:10181800DFE802F0028285880C224A601E684D6863
:101828000C6830362A0A920002F00C02B05805F013
:101838001F051F27AF4020EA0700C4F38464AC40AB
:101848002043B0501A68906810F0040F71D001203E
:10185800946814F0080F6ED0012450BB4CBB0E687E
:101868008D681432700E800000F004001458C6F31E
:1018780004560727B74024EA0704B5402C43145000
:101888004C691868C268C2F3C102520004FA02F235
:101898000D69042D51D00E68603050F82570B84C91
:1018A8003C4006F0F8463243144344F0004440F804
:1018B80025401868826812F0010F16D10A68CD68B1
:1018C800D0F8B040C2F3120624EA060405F0180660
:1018D800AC4DF5402A40C2F312022243C0F8B020B2
:1018E800C868A94A904200F083800A68A7490A425A
:1018F80000F08781A649896801F0E074A548824212
:1019080000F01481A448824200F05081A34882422A
:1019180000F0648100206EE712224A607EE71822F8
:101928004A607BE74FF480724A6077E706224A6094
:1019380074E700208CE700248FE7026E046EC4F37E
:1019480084640A68C2F312057DBBC2F384629442C0
:1019580030D01C68626E606EC0F384600A68C2F39F
:10196800120565BBC2F3846290422DD01C68A26E3A
:10197800A06EC0F384600A68C2F312054DBBC2F3BF
:10198800846290422AD01C68E26EE06EC0F38460E4
:101998000A68C2F3120535BBC2F38462904288D14B
:1019A800E26E22F00042E26683E792FAA2F2B2FA0D
:1019B80082F2CCE7026E22F000420266C9E792FA90
:1019C800A2F2B2FA82F2CFE7626E22F000426266B9
:1019D800CCE792FAA2F2B2FA82F2D2E7A26E22F031
:1019E8000042A266CFE792FAA2F2B2FA82F2D5E7F3
:1019F8001D680A68C2F3120696BB900E013000F00B
:101A08001F0009288CBF00200120002852D09EBB4F
:101A1800940E0134A40604F0F844B6BB900E0130CD
:101A280000F01F070120B8400443C6BB920E0132E4
:101A380002F01F0202EB4202120522438C681435A1
:101A4800500E800000F004002E58C2F304520727FD
:101A5800974026EA070604FA02F232432A5044E77E
:101A680092FAA2F0B0FA80F0013000F01F000928C5
:101A78008CBF00200120C8E792FAA2F4B4FA84F4DB
:101A88000134A40604F0F844C7E792FAA2F0B0FAC9
:101A980080F0013000F01F070120B840C4E792FA37
:101AA800A2F2B2FA82F2013202F01F0202EB420203
:101AB8001205C2E7CEB9940E0134A40604F0F84426
:101AC800E6B9900E013000F01F070120B84004432A
:101AD800F6B9900E013000F01F0000EB40021E3AEC
:101AE800120542F000722243A8E792FAA2F4B4FA6F
:101AF80084F40134A40604F0F844E1E792FAA2F071
:101B0800B0FA80F0013000F01F070120B840DEE78E
:101B180092FAA2F0B0FA80F0013000F01F0000EB5A
:101B280040021E3A120542F00072DCE711F4000F81
:101B38007FF4E8AE1A681A498A4205D001F50071A7
:101B48008A4201D0002056E644F4000410498A680D
:101B580022F0E07214438C60124A1268920912490A
:101B6800A1FB0212920902EB42029100019102E0EC
:101B7800019A013A0192019A002AF9D100203AE625
:101B880000F0FF03FFFF070000007F40000008800F
:101B980000030450000052C7000084CB01000080FD
:101BA800000004508C000020632D3E0511F0807F5A
:101BB8007FF4ACAE1A6816498A4205D001F5007167
:101BC8008A4201D0002016E644F0807211488168EC
:101BD80021F0E0710A43826000200CE611F4800FC6
:101BE80011D119680A4A914201D0002003E644F451
:101BF80080020848816821F0E0710A438260002071
:101C0800F9E50020F7E50020F5E50220F6E500BF3C
:101C1800000004500003045038B503689A6812F0B5
:101C2800010F3DD199681F4A114209D0436D43F015
:101C380010034365836D43F001038365012030E0A1
:101C480004469A6822F0004222F03F0242F0010264
:101C58009A60FFF739FC054604E0FFF735FC401BA6
:101C6800022811D823681A6812F0010F16D19A6851
:101C780012F0010FF1D19A6822F0004222F03F02DF
:101C880042F001029A60E8E7636D43F01003636570
:101C9800A36D43F00103A365012002E0002000E0EA
:101CA800002038BD3F000080F8B53C4B9D680368B4
:101CB8009B6813F0040F6BD105F01F0590F85030A6
:101CC800012B68D0012380F8503045B1052D06D08E
:101CD800092D04D0002380F85030012359E017461D
:101CE8000E460446FFF798FF034600284CD1636D63
:101CF80023F4706323F0010343F48073636523685E
:101D0800274A93423AD01A46934200D01DB9636DD0
:101D180023F480136365636D13F4805F31D0A36D82
:101D280023F00603A365E36C1E4ADA62E36C1E4ADD
:101D38001A63E36C1D4A5A6323681C221A60002345
:101D480084F850302268536843F0100353602268C7
:101D5800D36843F00103D36021683B4632464031E3
:101D6800E06C00F087FB034621688A6822F0004295
:101D780022F03F0242F004028A600AE0A2F5807273
:101D8800C2E70023A365CEE7002284F8502000E0D4
:101D980002231846F8BD0223FBE700BF00030450E6
:101DA800000104502D17000821170008B517000876
:101DB80038B503689A6812F0020F15D001219A68A5
:101DC80012F0010F37D0002937D19A6802F00D02BE
:101DD800012A0BD0436D43F010034365836D43F034
:101DE80001038365012027E00021E8E704469A689B
:101DF80022F0004222F03F0242F002029A60036899
:101E080003221A60FFF760FB054623689B6813F0FE
:101E1800010F0ED0FFF758FB401B0228F5D9636D60
:101E280043F010036365A36D43F00103A36501202C
:101E380002E0002000E0002038BD0020FCE730B5BB
:101E480083B00022019290F85020012A43D00D4619
:101E58000446012380F85030FFF7AAFF024680BBF2
:101E6800636D23F4885323F0020343F00203636590
:101E780021688B6823F0404323F03F0305F0804539
:101E88002B4343F000438B6023689B68002B11DAD7
:101E9800019B01330193019BB3F5912FF4D3636D3B
:101EA80023F0120343F010036365002384F85030D5
:101EB80001220DE0636D23F0030343F00103636522
:101EC80003E0636D43F010036365002384F850302A
:101ED800104603B030BD0222FAE70368D3F8B40015
:101EE800084000F07F10090B01F01001C84070474E
:101EF800034690F85000012839D070B4012083F8C7
:101F080050001868846814F0040F1ED001258468F6
:101F180014F0080F1BD00126846814F0010F18D0A4
:101F2800BDB9B6B9D0F8B45001F07F1425EA04055C
:101F380001F07F04E44304EA113101F010018A4002
:101F48002A43C0F8B42000200CE00025DFE7002673
:101F5800E2E75A6D42F020025A659A6D42F001029A
:101F68009A650120002283F8502070BC7047022037
:101F78007047000090F85020012A00F0958030B496
:101F88009AB00346012280F85020026847488242EE
:101F98003FD000200190019800283ED0806810F0C2
:101FA800040F43D00120926812F0040F6DD100286D
:101FB8006BD10A68002A41D03D4CA26822F46042E5
:101FC800486893F8305040EA45300243A260374AE7
:101FD800926812F0010F2BD00120364A926812F055
:101FE800010F27D0012202433348806810F0010F07
:101FF80022D00120024353D12D4CA26822F47162F1
:1020080022F00F020868896801430A43A260002091
:1020180040E000F580700190BDE75A6D42F0200263
:102028005A65002283F85020012036E00020BAE7E4
:102038000020D2E70022D6E70020DBE71C488168B1
:1020480021F4604181601949896811F0010F18D0A5
:1020580001201849896811F0010F14D001210143AA
:102068001548806810F0010F00D001220A4319D1E9
:102078000F498A6822F4716222F00F028A600020F8
:1020880008E01046E5E71146E9E75A6D42F02002FC
:102098005A650120002283F850201AB030BC7047DE
:1020A8000020F7E70020F5E7022070470000045001
:1020B800000304500001045000020450074AD3688A
:1020C80023F4E0631B041B0C000200F4E0601843D7
:1020D80040F0BF6040F40030D060704700ED00E091
:1020E80030B4174BDB68C3F30223C3F10704042C95
:1020F80028BF04241D1D062D18D9033B4FF0FF35BA
:1021080005FA04F421EA0401994005FA03F322EAE6
:102118000303194300280BDB0901C9B200F1604031
:1021280000F5614080F8001330BC70470023E5E7F4
:1021380000F00F000901C9B2024B1954F4E700BFBF
:1021480000ED00E014ED00E0002807DB00F01F02BE
:10215800400901239340024A42F82030704700BFEB
:1021680000E100E00138B0F1807F0AD2064B5860E8
:10217800064AF02182F823100020986007221A608E
:1021880070470120704700BF10E000E000ED00E05C
:1021980070B110B50446037933B1022323710020CE
:1021A80020610123237110BD437103F05BFCF4E748
:1021B800012070474379012B2AD030B401234371A1
:1021C800022202710468226801F01005AB40134333
:1021D800236089B90268136803F03C03042B06D016
:1021E8000123037100234371184630BC70475368BC
:1021F80043F001035360F3E70268136803F47013B4
:10220800B3F5802FECD1536843F002035360E7E73E
:1022180002207047F8B54379012B00F094801646E8
:102228000D46044601234371022303710B68042BF6
:1022380032D02B69012B79D02068C36B06F01002CD
:102248000721914023EA01012B68AE683343EE6809
:10225800334393400B43C363206803684FF48041C2
:10226800914023EA010303602068036840F6FC718B
:10227800914023EA01016B6893400B430360206897
:102288000368C02101FA02F223EA02020260012374
:10229800237100206071F8BD72B123685B6B002B5D
:1022A80025DAFFF711F90128F7D9236943F0080364
:1022B800236103202071EEE7FFF706F9074623683C
:1022C8005B6B13F4004F0BD0FFF7FEF8C01B01281F
:1022D800F5D9236943F00803236103202071DAE765
:1022E8000120FFF7F7F82368AA691A6405E00120BE
:1022F800FFF7F0F82368AA695A642068826C06F030
:10230800100140F2FF338B4022EA0302EB698B4055
:102318001A4382642068C36CFF228A4023EA0203BE
:102328002A6A02FA01F10B43C36482E721688A6BC7
:1023380006F010001F23834022EA03026B698340E2
:1023480013438B6378E70220A5E770B4446C04F06C
:102358001C05066C0124AC407460046863608368E3
:10236800102B05D0036899600368DA6070BC704769
:1023780003689A600368D960F8E70000002869D00C
:1023880010B403460168344A914245D8334A0A4496
:102398003349A1FB0212120992004264314A0264D5
:1023A800022283F825201868016821F4FF4121F0F2
:1023B80070019A68DC6822431C6922435C692243E5
:1023C8009C692243DC6922431C6A22430A43026057
:1023D8009A68B2F5804F15D0196C224A914226D0DE
:1023E800214A1168586C00F01C040F20A04021EA13
:1023F80000011160116858685C6C04F01C04A0406E
:10240800014311600020D863012283F8252083F856
:1024180024005DF8044B7047144A0A441049A1FB94
:102428000212120992004264114A0264B8E7A83203
:102438001168586C00F01C040F20A04021EA00012C
:102448001160116858685C6C04F01C04A0400143DA
:102458001160D7E70120704707040240F8FFFDBF6D
:10246800CDCCCCCC00000240A8040240F8FBFDBF54
:102478000004024038B590F82440012C33D00124E0
:1024880080F8244090F82540E4B2012C04D00023C1
:1024980080F82430022038BD0446022084F8250044
:1024A8000020E0632568286820F0010028602046A5
:1024B800FFF74BFF236B5BB12268136843F00E03F1
:1024C80013602268136843F0010313600020E2E7F9
:1024D8002268136823F0040313602268136843F02A
:1024E8000A031360EDE70220D5E738B5036C1968D5
:1024F80004682568436C03F01C0304229A400A42CE
:1025080015D015F0040F12D0236813F0200F03D153
:10251800236823F004032360436C03F01C02016C5E
:10252800042393404B60036B03B1984738BD0222E4
:102538009A400A421CD015F0020F19D0236813F0F4
:10254800200F06D1236823F00A032360012380F8B3
:102558002530436C03F01C02016C022393404B604E
:10256800002380F82430C36A002BDFD09847DDE7CA
:10257800082202FA03F30B42D8D015F0080FD5D081
:10258800236823F00E032360436C03F01C03016CE3
:10259800012202FA03F34B60C26380F8252000236E
:1025A80080F82430436B002BC0D09847BEE700006A
:1025B800F0B482B0002341E0D0F82CC02CEA040C1F
:1025C800C6F3C0049C4044EA0C04C46286E00624B6
:1025D80000E00024B4403C430235664E46F82540EE
:1025E800654C2568D44304EA05064F6817F4803F14
:1025F80001D042EA0506604D2E606D6804EA0506C2
:102608004F6817F4003F01D042EA05065A4D6E6044
:10261800AD6804EA05064F6817F4801F01D042EA46
:102628000506554DAE60ED682C404E6816F4001F47
:1026380001D042EA0504504AD46001330A6832FAEC
:1026480003F400F0938001249C402240F5D04D68AB
:10265800022D01D0122D10D1DE08083650F826C000
:1026680003F00705AF000F25BD402CEA050C0D69E6
:10267800BD4045EA0C0540F8265006685F00032572
:10268800BD40ED4305EA060C4E6806F00306BE4061
:1026980046EA0C0606604E6806F1FF3CBCF1010FE5
:1026A80003D9112E01D0122E11D1866805EA060C25
:1026B800CE68BE4046EA0C068660466826EA040CE8
:1026C8004E68C6F300169E4046EA0C0646604E6801
:1026D80006F0030CBCF1030F3FF46EAFC46825404D
:1026E8008C68BC402C43C4604C6814F0805FA4D054
:1026F800224C256E45F001052566246E04F0010480
:102708000194019C9D08AE1C1A4C54F8267003F0E5
:102718000304A6000F24B44027EA0407B0F1904F41
:102728003FF457AF164CA04216D004F58064A0427F
:1027380014D004F58064A04212D004F58064A0424D
:1027480010D004F58064A0420ED004F58064A04245
:102758003FF43DAF07243DE701243BE7022439E776
:10276800032437E7042435E7052433E702B0F0BC37
:10277800704700BF00000140000401400010024003
:10278800000400480AB98162704781617047036894
:102798009A6912F0020F01D000229A6203689A69BE
:1027A80012F0010F03D19A6942F001029A61704751
:1027B80070B4039E05686868740D04F4806444F07E
:1027C8007F7444F4583444F47F7444F0030420EADA
:1027D8000400C1F3090141EA0241194331430143AD
:1027E800696070BC704770B504460D4616460368AC
:1027F8009B6913F0100F1CD023689A6912F0200F00
:1028080019D1B5F1FF3FF7D0FEF75EFE801BA84255
:1028180001D8002DF0D1636C43F0200363642023BA
:1028280084F84130002384F8423084F84030012095
:1028380020E000201EE01022DA6123682025DD61F7
:102848002046FFF7A4FF2268536823F0FF7323F4A0
:102858008B3323F4FF7323F001035360636C43F05D
:102868000403636484F84150002384F8423084F8F8
:102878004030012070BD70B504460D4616462368E9
:102888009B6913F0020F1DD1324629462046FFF7F7
:10289800AAFFC8B9B5F1FF3FF1D0FEF715FE801BBE
:1028A800A84201D8002DEAD1636C43F02003636489
:1028B800202384F84130002384F8423084F84030E3
:1028C800012000E0002070BD0120FCE7F8B50546B6
:1028D8000F4616461C462B689B6937EA03030CBF54
:1028E80001230023B34218D1B4F1FF3FF3D0FEF720
:1028F800EBFD069BC01AA04201D8002CEBD16B6CF3
:1029080043F020036B64202385F84130002385F8C9
:10291800423085F84030012000E00020F8BD00007A
:1029280070B582B0044616461D46184B00934FF00A
:102938008073EAB2FFF73CFF079A06992046FFF733
:102948009AFFE8B9012D0ED12368F6B29E62079B63
:102958000093069B002280212046FFF7B7FF03461D
:1029680078B101230DE02368320A9A62079A069922
:102978002046FFF780FF38B92368F6B29E62E6E783
:102988000123184602B070BD0123FAE70020008039
:1029980070B505460C4616462B689B6913F0200F48
:1029A8001AD1324621462846FFF71DFFB0B9FEF777
:1029B8008BFD801BA04201D8002CEDD16B6C43F03D
:1029C80020036B64202385F84130002385F84230CA
:1029D80085F84030012070BD0020FCE70120FAE7AF
:1029E80070B504460D46164623689B6913F0040F1C
:1029F8003ED1324629462046FFF7F5FE014600281B
:102A080038D123689A6912F0200F13D1FEF75CFDC4
:102A1800801BA84201D8002DE6D1636C43F0200347
:102A28006364202384F84130002384F84030012176
:102A3800084670BD9A6912F0040F02D0228D002A50
:102A4800F6D12022DA6121684B6823F0FF7323F462
:102A58008B3323F4FF7323F001034B60002363647B
:102A680084F8412084F8423084F840300121DFE7BF
:102A78000021DDE70121DBE7002859D010B5044625
:102A880090F84130002B43D0242384F84130226849
:102A9800136823F0010313606368226823F07063EE
:102AA80013612268936823F400439360E368012B61
:102AB80033D0A368226843F404439360E368022B8D
:102AC80031D02268536843F0007343F400435360E5
:102AD8002268D36823F40043D360236962691343EF
:102AE800A169226843EA0123D360E369216A226865
:102AF8000B4313602268136843F00103136000203E
:102B08006064202384F84130206384F8420010BDBB
:102B180080F8403003F036F9B6E7A368226843F43A
:102B280000439360CAE723684FF400625A60C8E71D
:102B3800012070472DE9F04383B090F84150EDB281
:102B4800202D40F0A48090F84040012C00F0A48093
:102B5800984617460E4604464FF0010980F8409003
:102B6800FEF7B2FC0546009019234A464FF400418F
:102B78002046FFF7ABFE002840F09080212384F820
:102B88004130102384F84230002363646762A4F85C
:102B98002A806363638D9BB2FF2B0AD9FF222285AB
:102BA800424B00934FF0807331462046FFF700FEFA
:102BB80018E0628D92B222853C4B00934FF000736F
:102BC800D2B231462046FFF7F3FD0BE0628D92B298
:102BD8002285002300934FF00073D2B2314620467D
:102BE800FFF7E6FD638D9BB2002B33D02A460A9986
:102BF8002046FFF740FE002852D1626A2368127807
:102C08009A62636A01336362638D013B9BB2638599
:102C1800238D013B9BB22385628D92B2002AE1D0BD
:102C2800002BDFD100950A9B002280212046FFF768
:102C38004DFE002836D1638D9BB2FF2BC6D9FF22EB
:102C48002285002300934FF0807331462046FFF71A
:102C5800AFFDC7E72A460A992046FFF799FE0346C3
:102C680010BB22682021D1612068426822F0FF72DF
:102C780022F48B3222F4FF7222F00102426084F8BF
:102C88004110002284F8422084F8402000E002230A
:102C9800184603B0BDE8F0830223F9E70123F7E7FC
:102CA8000123F5E70123F3E70123F1E70020008082
:102CB8002DE9F04383B090F84150EDB2202D40F05B
:102CC800A48090F84040012C00F0A4809846174654
:102CD8000E4604464FF0010980F84090FEF7F4FBD9
:102CE8000546009019234A464FF400412046FFF755
:102CF800EDFD002840F09080222384F84130102315
:102D080084F84230002363646762A4F82A8063630E
:102D1800638D9BB2FF2B0AD9FF222285424B009379
:102D28004FF0807331462046FFF742FD18E0628D70
:102D380092B222853C4B00934FF00073D2B23146D9
:102D48002046FFF735FD0BE0628D92B22285002305
:102D580000934FF00073D2B231462046FFF728FDAA
:102D6800638D9BB2002B33D02A460A992046FFF781
:102D780037FE002852D123685A6A636A1A70636A58
:102D880001336362238D013B9BB22385628D013A37
:102D980092B26285628D92B2002AE1D0002BDFD117
:102DA80000950A9B002280212046FFF78FFD00280E
:102DB80036D1638D9BB2FF2BC6D9FF222285002313
:102DC80000934FF0807331462046FFF7F1FCC7E7C8
:102DD8002A460A992046FFF7DBFD034610BB226806
:102DE8002021D1612068426822F0FF7222F48B32E0
:102DF80022F4FF7222F00102426084F8411000229E
:102E080084F8422084F8402000E00223184603B0EA
:102E1800BDE8F0830223F9E70123F7E70123F5E78B
:102E28000123F3E70123F1E7002400802DE9F047AF
:102E380082B0BDF82C7090F84150EDB2202D40F0D2
:102E4800BA800A9CDCB1D7B190F84040012C00F060
:102E5800B780984691460D4604464FF0010A80F81F
:102E680040A0FEF731FB06460090192352464FF466
:102E780000412046FFF72AFD30B101239CE04FF4C2
:102E880000734364012397E0212384F841304023F1
:102E980084F84230002363640A9A62626785636338
:102EA80001960C9B009343464A4629462046FFF765
:102EB80037FD70B9638D9BB2FF2B0FD9FF22228596
:102EC800002300934FF0807329462046FFF770FCDB
:102ED80021E0002384F8403053466DE0628D92B2C1
:102EE8002285002300934FF00073D2B22946204672
:102EF800FFF75EFC0FE0628D92B2228500230093FB
:102F08004FF00073D2B229462046FFF751FC638D7B
:102F18009BB2002B32D032460C992046FFF7ABFC0F
:102F280000284FD1626A236812789A62636A013373
:102F38006362638D013B9BB26385238D013B9BB22A
:102F48002385628D92B2002AE1D0002BDFD1009652
:102F58000C9B002280212046FFF7B8FCA0BB638DA4
:102F68009BB2FF2BC7D9FF222285002300934FF085
:102F7800807329462046FFF71BFCC8E732460C99A8
:102F88002046FFF705FD034600BB22682021D161DA
:102F98002068426822F0FF7222F48B3222F4FF721A
:102FA80022F00102426084F84110002284F8422095
:102FB80084F8402000E00223184602B0BDE8F087FC
:102FC8000223F9E70123F7E70123F5E70123F3E7F4
:102FD80090F84130DBB2202B24D190F84030012BFF
:102FE80022D0012380F84030242380F84130026841
:102FF800136823F0010313600268136823F48053F5
:10300800136002681368194311600268136843F07B
:1030180001031360202380F84130002380F84030FA
:1030280018467047022070470220704790F84130D8
:10303800DBB2202B22D190F84030012B20D0012385
:1030480080F84030242380F841300268136823F068
:10305800010313600268136823F4706343EA0121D3
:1030680011600268136843F001031360202380F89D
:103078004130002380F840301846704702207047DE
:1030880002207047024B186800F4C060704700BF08
:1030980000700040B0F5007F0FD01F4B1B6803F491
:1030A800C063B3F5806F34D01B4A136823F4C06340
:1030B80043F48063136000207047174B1B6803F4C8
:1030C800C063B3F5007F22D0134A136823F4C063AA
:1030D80043F400731360114B1A68322303FB02F3A5
:1030E8000F4AA2FB03239B0C013300E0013B0A4A71
:1030F800526912F4806F01D0002BF7D1064B5B693F
:1031080013F4806F01D1002070470320704700201E
:1031180070470020704700BF007000408C000020FE
:1031280083DE1B4330B583B00546204B9B6D13F0FF
:10313800805F0BD0FFF7A6FFB0F5007F17D0802D7A
:103148001FD82DD0702D2DD000211BE0174CA36D5A
:1031580043F08053A365A36D03F080530193019B53
:10316800FFF790FFA36D23F08053A365E4E7802D5C
:1031780003D9A02D03D9022104E0002102E0012196
:1031880000E003210A4A136823F007030B43136086
:10319800136803F007038B4206D0012003B030BD4B
:1031A8000221EFE70121EDE70020F7E700100240D8
:1031B80000200240284A9368D26802F0030213F004
:1031C8000C030AD00C2B06D0042B1FD0082B20D0C0
:1031D8000020024610E0012AF6D11F4A126812F0B8
:1031E800080F0CD11C4AD2F89420C2F303221B49C1
:1031F80051F8222043B100200C2B0DD07047164AFD
:103208001268C2F30312F2E71046F5E714480022E9
:10321800F2E714480022EFE70F4BDB6803F00303E3
:10322800022B15D0032B15D00B4BD868C0F3021016
:103238000130D968C1F3062102FB01F2B2FBF0F2BA
:10324800D868C0F3416001304000B2FBF0F0D5E728
:10325800034AE9E7034AE7E700100240E8AA000842
:103268000024F40080969800002800F0D182F0B580
:1032780083B00446AD4B9D6805F00C05DE6806F08A
:103288000306036813F0100F5ED0E5B10C2D18D0BB
:10329800A369002B00F0B880A44A136843F0010327
:1032A8001360FEF711F90746A04B1B6813F0020FD5
:1032B80040F09780FEF708F9C01B0228F4D90323D1
:1032C800B9E2012EE4D1994B1B6813F0020F03D029
:1032D800A369002B00F09F82206A944B1B6813F0AF
:1032E800080F5ED0914B1B6803F0F00398425FD93A
:1032F800FFF718FF002840F097828C4B1A6842F0BD
:1033080008021A601A6822F0F002216A0A431A6059
:103318005A6822F47F42E16942EA01225A60FFF7C3
:1033280049FF824B9B68C3F30313814AD35C03F0C4
:103338001F03D8407F4B18607F4B1868FEF782F850
:103348000346002840F07782236813F0010F7AD0F3
:10335800082D6FD00C2D6BD06368B3F5803F00F05B
:103368009180B3F5A02F00F09380704B1A6822F477
:1033780080321A601A6822F480221A606368002B6F
:1033880000F09380FEF7A0F80746684B1B6813F41B
:10339800003F58D1FEF798F8C01B6428F5D90323DD
:1033A80049E2624BD3F894301B0903F0F0039DE720
:1033B8005E4B1A6842F008021A601A6822F0F0029E
:1033C800216A0A431A605A6822F47F42E16942EA94
:1033D80001225A60206AFFF7A5FE00289FD001232A
:1033E80029E2524B1A6842F008021A601A6822F061
:1033F800F002216A0A431A605A6822F47F42E1699E
:1034080042EA01225A609FE7484A136823F0010301
:103418001360FEF759F80746444B1B6813F0020F78
:1034280092D0FEF751F8C01B0228F5D9032302E217
:10343800032E91D13D4B1B6813F4003F03D0636802
:10344800002B00F0F381236813F0020F4FD0042DF6
:103458003CD00C2D38D0E368002B78D0334A136861
:1034680043F480731360FEF72FF806462F4B1B6852
:1034780013F4806F62D1FEF727F8801B0228F5D974
:103488000323D8E1294A136843F48033136075E7AE
:1034980003F18043A3F53C331A6842F480221A6092
:1034A8001A6842F480321A6068E7FEF70DF807469A
:1034B8001E4B1B6813F4003FC5D0FEF705F8C01B70
:1034C8006428F5D90323B6E1022EC4D1174B1B6833
:1034D80013F4806F03D0E368002B00F0A981134A2E
:1034E800536823F0F853216943EA01635360236862
:1034F80013F0080F56D06369002B3CD00B4AD2F862
:10350800943043F00103C2F89430FDF7DDFF06461E
:10351800064BD3F8943013F0020F43D1FDF7D4FFD4
:10352800801B0228F4D9032385E100BF0010024064
:1035380018AB00088C00002004000020B74A53682C
:1035480023F0F853216943EA01635360CFE7B34A94
:10355800136823F480731360FDF7B6FF0646AF4B7C
:103568001B6813F4806FC2D0FDF7AEFF801B0228E2
:10357800F5D903235FE1A94AD2F8943023F0010377
:10358800C2F89430FDF7A0FF0646A44BD3F8943058
:1035980013F0020F06D0FDF797FF801B0228F4D91D
:1035A800032348E1236813F0040F7AD09B4B9B6DEB
:1035B80013F0805F0BD1994B9A6D42F080529A6557
:1035C8009B6D03F080530193019B012600E00026C8
:1035D800934B1B6813F4807F26D0A368012B37D048
:1035E800052B3DD08D4BD3F8902022F00102C3F873
:1035F8009020D3F8902022F00402C3F89020A3680A
:10360800002B3BD0FDF760FF0746844BD3F8903082
:1036180013F0020F44D1FDF757FFC01B41F2883366
:103628009842F2D9032306E17D4A136843F4807374
:103638001360FDF749FF0746794B1B6813F4807F39
:10364800CBD1FDF741FFC01B0228F5D90323F2E0D7
:10365800724AD2F8903043F00103C2F89030CEE7B6
:103668006E4BD3F8902042F00402C3F89020D3F8B0
:10367800902042F00102C3F89020C0E7FDF724FF34
:103688000746664BD3F8903013F0020F08D0FDF7C9
:103698001BFFC01B41F288339842F2D90323CAE0CA
:1036A8005EBBA36A002B00F0C5800C2D76D0022BE0
:1036B80029D05A4B1A6822F080721A601B6813F0DE
:1036C800205F04D1554AD36823F00303D360534ADB
:1036D800D36823F0887323F48033D360FDF7F4FEB6
:1036E80004464E4B1B6813F0007F55D0FDF7ECFEE7
:1036F800001B0228F5D903239DE0484A936D23F067
:1037080080539365CDE7454A136823F080731360AF
:10371800FDF7DAFE0546414B1B6813F0007F06D023
:10372800FDF7D2FE401B0228F5D9032383E03B4A6C
:10373800D3683C491940E36A206B013843EA001317
:10374800606B43EA0023E06B4008013843EA4053CA
:10375800206C4008013843EA4063A06B000943EA43
:1037680040430B43D360136843F080731360D368FE
:1037780043F08073D360FDF7A7FE0446274B1B6810
:1037880013F0007F06D1FDF79FFE001B0228F5D934
:10379800032350E000234EE000234CE0012B4DD0E2
:1037A8001E4BDB6803F00301E26A914201D001235A
:1037B80041E003F07002216B0139B2EB011F01D027
:1037C800012338E003F4FE42616BB2EB012F01D014
:1037D800012330E003F40031A26B073A18BF01223D
:1037E800914201D0012326E003F4C001E26B5208A4
:1037F800013AB1EB425F01D001231CE003F0C06342
:10380800226C5208013AB3EB426F19D0012312E03F
:1038180001231846704701230DE000BF0010024045
:10382800007000408C809DF9012304E0012302E030
:10383800012300E00023184603B0F0BD0123FAE796
:103848000023F8E7002800F09B8070B504464E4B33
:103858001B6803F007038B420CD24B4A136823F012
:1038680007030B431360136803F007038B4201D06F
:10387800012070BD0D46236813F0010F39D063682D
:10388800032B09D0022B26D063BB404A126812F0E2
:10389800020F06D10120ECE73C4A126812F0007FC3
:1038A80070D03A498A6822F0030213438B60FDF70F
:1038B8000BFE0646354B9B6803F00C036268B3EBBE
:1038C800820F16D0FDF700FE801B41F28833984224
:1038D800F0D90320CDE72D4A126812F4003FE0D159
:1038E8000120C6E7294A126812F4806FD9D1012055
:1038F800BFE7236813F0020F06D0244A936823F029
:10390800F003A1680B4393601F4B1B6803F0070388
:10391800AB420CD91C4A136823F007032B431360EE
:10392800136803F00703AB4201D00120A1E7236825
:1039380013F0040F06D0154A936823F4E063E16896
:103948000B439360236813F0080F07D00F4A93685E
:1039580023F46053216943EAC1039360FFF72AFC0B
:103968000A4B9B68C3F30313094AD35C03F01F0394
:10397800D840084B1860084B1868FDF763FD78E7D6
:1039880001207047012074E7002002400010024027
:1039980018AB00088C00002004000020014B1868B8
:1039A800704700BF8C00002008B5FFF7F7FF054BF4
:1039B8009B68C3F30223044AD35C03F01F03D84077
:1039C80008BD00BF0010024028AB000808B5FFF78B
:1039D800E5FF054B9B68C3F3C223044AD35C03F09D
:1039E8001F03D84008BD00BF0010024028AB0008E4
:1039F800F8B55A4BDB6813F0030F18D0574BDB6848
:103A080003F003030268934202D001252846F8BD5B
:103A1800002A00F0A080514BDB68C3F30213013386
:103A28004268934201D00125F0E700251AE00368B7
:103A3800022B59D0032B5ED0012B01D001250FE0BA
:103A4800464A126812F0020F61D0444DEA6822F02B
:103A580073024468013C43EA04131343EB600025F6
:103A6800002DD3D10F4604463C4A136823F08063E7
:103A78001360FDF729FD0646384B1B6813F0006FED
:103A880005D0FDF721FD801B0228F5D90325002D5F
:103A9800BCD1002F3DD131490B6923F41F3323F4E6
:103AA8004073A068E2681209520442EA00221343F4
:103AB8000B612A4A136843F080631360FDF704FD25
:103AC8000646264B1B6813F0006F05D1FDF7FCFC7A
:103AD800801B0228F5D90325002D97D11F4A1369A9
:103AE800A1690B43136191E71C4A126812F4806FB5
:103AF800ABD10125B4E7194A126812F4003FA4D1EA
:103B0800164A126812F4802F9FD10125A8E70125D3
:103B1800A6E7012F0FD01148026922F0C06222F4F3
:103B2800FE42A16863695B08013B5B0643EA012327
:103B380013430361BDE70948026922F4C00222F475
:103B4800FE42A16823695B08013B5B0543EA012348
:103B580013430361ADE7012558E700BF0010024099
:103B6800F8B5514BDB6813F0030F18D04E4BDB68E8
:103B780003F003030268934202D001252846F8BDEA
:103B8800002A00F08E80484BDB68C3F30213013330
:103B98004268934201D00125F0E700251AE0036846
:103BA800022B59D0032B5ED0012B01D001250FE049
:103BB8003D4A126812F0020F61D03B4DEA6822F0CC
:103BC80073024468013C43EA04131343EB60002585
:103BD800002DD3D10F460446334A136823F080538F
:103BE8001360FDF771FC06462F4B1B6813F0005F4E
:103BF80005D0FDF769FC801B0228F5D90325002DA7
:103C0800BCD1002F3DD128494B6923F41F3323F43D
:103C18004073A068E2681209520442EA0022134382
:103C28004B61214A136843F080531360FDF74CFC45
:103C380006461D4B1B6813F0005F05D1FDF744FCD9
:103C4800801B0228F5D90325002D97D1164A536900
:103C580061690B43536191E7134A126812F4806F4C
:103C6800ABD10125B4E7104A126812F4003FA4D181
:103C78000D4A126812F4802F9FD10125A8E701256B
:103C8800A6E70948426922F0C06222F4FE42A16810
:103C980023695B08013B5B0643EA01231343436145
:103CA800BFE701256AE700BF001002402DE9F04197
:103CB80082B00446036813F4006F2FD0436EB3F547
:103CC800800F25D008D9B3F5000F10D0B3F5400FF9
:103CD80040F09980002610E0002B40F094800021ED
:103CE8000430FFF785FE06463EB1374618E05E4AC7
:103CF800D36843F48033D36000265B4AD2F8883017
:103D080023F44003616E0B43C2F88830002707E0B4
:103D180000212030FFF724FF0646E5E700273E464E
:103D2800236813F4805F15D0A36EB3F1807F7AD037
:103D38006CD9B3F1007F70D0B3F1407F7AD1002EF7
:103D48007BD1494AD2F8883023F04073A16E0B43E7
:103D5800C2F88830236813F4003F00F08E80424B8D
:103D68009B6D13F0805F6AD13F4B9A6D42F0805291
:103D78009A659B6D03F080530193019B4FF00108F6
:103D88003A4A136843F480731360FDF79DFB0546B8
:103D9800364B1B6813F4807F05D1FDF795FB401B5C
:103DA8000228F5D90326002E62D12F4BD3F8903084
:103DB80013F4407316D0D4F884209A4212D02A4AB9
:103DC800D2F8903023F44073D2F8901041F4803147
:103DD800C2F89010D2F8901021F48031C2F89010F7
:103DE800C2F8903013F0010F2CD1002E40F043811F
:103DF8001D4AD2F8903023F44073D4F884100B4352
:103E0800C2F8903035E001273E4689E793B9002192
:103E1800201DFFF7EDFD064691E7134AD36843F4EA
:103E28008033D3608BE7002104F12000FFF798FE70
:103E3800064684E701273E468CE737468AE74FF077
:103E480000089DE7FDF740FB0546074BD3F8903087
:103E580013F0020FC9D1FDF737FB401B41F288333D
:103E68009842F2D90326C0E70010024000700040D3
:103E78003746B8F1000F40F00081236813F0010FB6
:103E880008D09D4AD2F8883023F00303A16B0B4376
:103E9800C2F88830236813F0020F08D0964AD2F887
:103EA800883023F00C03E16B0B43C2F88830236899
:103EB80013F0040F08D0904AD2F8883023F030036A
:103EC800216C0B43C2F88830236813F0080F08D020
:103ED800894AD2F8883023F0C003616C0B43C2F8DA
:103EE8008830236813F0100F08D0834AD2F888303E
:103EF80023F44073A16C0B43C2F88830236813F095
:103F0800200F08D07C4AD2F8883023F44063E16C53
:103F18000B43C2F88830236813F4007F08D0764A30
:103F2800D2F8883023F44023E16D0B43C2F888307F
:103F3800236813F4806F08D06F4AD2F8883023F4CE
:103F48004013216E0B43C2F88830236813F0400FEA
:103F580008D0694AD2F8883023F44053216D0B43C6
:103F6800C2F88830236813F0800F08D0624AD2F86C
:103F7800883023F44043616D0B43C2F888302368CE
:103F880013F4807F08D05C4AD2F8883023F4403399
:103F9800A16D0B43C2F88830236813F4005F0FD07B
:103FA800554AD2F8883023F04063E16E0B43C2F8DB
:103FB8008830E36EB3F1006F65D0B3F1806F67D0DE
:103FC800236813F4002F0FD04B4AD2F8883023F01F
:103FD8004063216F0B43C2F88830236FB3F1006F41
:103FE8005ED0B3F1806F60D0236813F4802F0FD0B8
:103FF800414AD2F8883023F04063616F0B43C2F81E
:104008008830636FB3F1006F57D0B3F1806F59D028
:10401800236813F4804F0FD0374AD2F8883023F042
:104028004053A16F0B43C2F88830A36FB3F1805F90
:1040380050D0B3F1005F55D0236813F4004F08D077
:104048002D4AD2F8883023F08043E16F0B43C2F841
:104058008830236813F4803F09D0274AD2F8883083
:1040680023F00043D4F880100B43C2F88830384658
:1040780002B0BDE8F0813746FBE61F4A936D23F096
:1040880080539365F9E6D36843F48013D36097E7C8
:104098000121201DFFF7ACFC002891D007468FE7CF
:1040A800D36843F48013D3609EE70121201DFFF7F6
:1040B8009FFC002898D0074696E7D36843F48013FE
:1040C800D360A5E70121201DFFF792FC00289FD0AF
:1040D80007469DE70221201DFFF78AFC0028ABD088
:1040E8000746A9E7022104F12000FFF739FD00285F
:1040F800A2D00746A0E700BF00100240002853D016
:1041080010B504460023836290F85D30002B40D040
:10411800022384F85D302268136823F0400313609B
:10412800E368B3F5E06F39D90022B3F5706F04D0B6
:10413800B3F5E06F01D00021A162216B21B9B3F57D
:10414800E06F2ED9022323636368A1680B432169BA
:104158000B4361690B43A16901F400710B43E169E9
:104168000B43216A0B43A06A216803430B60638BEE
:1041780003F00403616A0B43616B0B43E1680B4373
:10418800216813434B6000202066012384F85D30CA
:1041980010BD80F85C3003F0A1FCB9E74FF4805201
:1041A800C3E701232363CFE70120704730B4036AD4
:1041B80023F001030362036A4468826922F48032AF
:1041C80022F073020D682A4323F002038D682B4303
:1041D8001C4DA8420FD005F50065A8420BD005F587
:1041E8004065A84207D005F58065A84203D005F5CB
:1041F8008065A84205D123F00803CD682B4323F03E
:104208000403104DA8420FD005F50065A8420BD055
:1042180005F54065A84207D005F58065A84203D09A
:1042280005F58065A84205D124F440754C692C43F6
:104238008D692C43446082614A684263036230BCE2
:10424800704700BF002C014030B4036A23F4807328
:104258000362036A4468C26922F4803222F073025E
:104268000D682A4323F400738D6843EA0523184D2B
:10427800A84203D005F50065A84206D123F40063DF
:10428800CD6843EA052323F48063114DA8420FD07B
:1042980005F50065A8420BD005F54065A84207D092
:1042A80005F58065A84203D005F58065A84207D1C9
:1042B80024F440544D6944EA05148D6944EA051410
:1042C8004460C2614A68C263036230BC704700BF81
:1042D800002C014030B4036A23F480530362036A5C
:1042E8004468C26922F0807222F4E6420D6842EA0C
:1042F800052223F400538D6843EA05330F4DA84285
:104308000FD005F50065A8420BD005F54065A84219
:1043180007D005F58065A84203D005F58065A84259
:1043280004D124F480444D6944EA85144460C26190
:104338004A680264036230BC704700BF002C014029
:1043480030B4036A23F480330362036A4468426D1D
:1043580022F4803222F070020D682A4323F40033DD
:104368008D6843EA05430F4DA8420FD005F5006557
:10437800A8420BD005F54065A84207D005F5806531
:10438800A84203D005F58065A84204D124F48034FE
:104398004D6944EA0524446042654A6882650362BF
:1043A80030BC7047002C014030B4036A23F48013FA
:1043B8000362036A4468426D22F0807222F4E0428C
:1043C8000D6842EA052223F400138D6843EA055379
:1043D8000F4DA8420FD005F50065A8420BD005F592
:1043E8004065A84207D005F58065A84203D005F5C9
:1043F8008065A84204D124F480244D6944EA8524C8
:10440800446042654A68C265036230BC704700BFB9
:10441800002C014010B4036A046A24F00104046209
:10442800846924F0F00444EA021223F00A030B43DF
:10443800826103625DF8044B704730B4046A24F06B
:10444800100404628469056A24F4407444EA022270
:1044580022F470421B039BB21A4325F0A005090100
:1044680001F0A00129438261016230BC704710B499
:10447800036A23F0100303628469036A24F4704416
:1044880044EA023223F0A00343EA01138261036283
:104498005DF8044B704730B4046A24F480740462F5
:1044A800C469056A24F00304224322F0F0021B01C8
:1044B800DBB21A4325F42065090201F4206129437F
:1044C800C261016230BC704730B4046A24F480547D
:1044D8000462C469056A24F4407444EA022222F49E
:1044E80070421B039BB21A4325F42045090301F4CB
:1044F80020412943C261016230BC7047836823F0C0
:104508007003194341F0070181607047022380F866
:104518003D3002689168084B0B40062B06D0B3F576
:10452800803F03D0136843F001031360012380F830
:104538003D300020704700BF0700010070477047FA
:104548007047704770477047704710B50446036856
:104558001A6912F0020F11D0DA6812F0020F0DD0AA
:104568006FF002021A610123037703689B6913F055
:10457800030F79D0FFF7E6FF0023237723681A6932
:1045880012F0040F12D0DA6812F0040F0ED06FF098
:1045980004021A610223237723689B6913F4407F7E
:1045A80068D02046FFF7CEFF0023237723681A69D7
:1045B80012F0080F12D0DA6812F0080F0ED06FF060
:1045C80008021A61042323772368DB6913F0030FB9
:1045D80057D02046FFF7B6FF0023237723681A69D0
:1045E80012F0100F12D0DA6812F0100F0ED06FF020
:1045F80010021A61082323772368DB6913F4407FCC
:1046080046D02046FFF79EFF0023237723681A69C8
:1046180012F0010F03D0DA6812F0010F3FD12368BE
:104628001A6912F0800F03D0DA6812F0800F3DD1BA
:1046380023681A6912F4807F03D0DA6812F0800FB9
:104648003BD123681A6912F0400F03D0DA6812F0E0
:10465800400F39D123681A6912F0200F03D0DA68A5
:1046680012F0200F37D110BDFFF76BFF2046FFF780
:104678006AFF81E72046FFF764FF2046FFF763FFE4
:1046880092E72046FFF75DFF2046FFF75CFFA3E7B0
:104698002046FFF756FF2046FFF755FFB4E76FF0B7
:1046A80001021A612046FFF74BFFB8E76FF080025E
:1046B8001A61204600F0CFFBBAE76FF480721A61E6
:1046C800204600F0C9FBBCE76FF040021A612046A3
:1046D800FFF73AFFBEE76FF020021A61204600F0AC
:1046E800B9FBC0E70368304A904212D0B0F1804F5E
:1046F8000FD0A2F5943290420BD002F5806290421E
:1047080007D002F58062904203D002F594329042BD
:1047180003D123F070034A681343234A90421ED002
:10472800B0F1804F1BD0A2F59432904217D002F519
:104738008062904213D002F5806290420FD002F559
:10474800943290420BD002F54062904207D002F5B5
:104758008062904203D002F58062904203D123F434
:104768004073CA68134323F080034A691343036004
:104778008B68C3620B6883620B4B98420FD003F5BA
:10478800006398420BD003F54063984207D003F5C5
:104798008063984203D003F58063984201D10B6986
:1047A8000363012343617047002C0140A8B110B591
:1047B800044690F83D305BB1022384F83D30211D5A
:1047C8002068FFF78FFF012384F83D30002010BDDB
:1047D80080F83C3005F042F8EEE701207047A8B1B8
:1047E80010B5044690F83D305BB1022384F83D30A3
:1047F800211D2068FFF776FF012384F83D30002053
:1048080010BD80F83C30FFF799FEEEE701207047B5
:10481800A8B110B5044690F83D305BB1022384F886
:104828003D30211D2068FFF75DFF012384F83D30EE
:10483800002010BD80F83C30FFF781FEEEE7012034
:104848007047000030B4036A23F010030362036A60
:104858004468826922F0807222F4E6420D6842EAD6
:10486800052223F020038D6843EA0513174DA8425B
:1048780003D005F50065A84206D123F08003CD6872
:1048880043EA051323F04003104DA8420FD005F565
:104898000065A8420BD005F54065A84207D005F58C
:1048A8008065A84203D005F58065A84207D124F4A5
:1048B80040644D6944EA85048D6944EA850444608E
:1048C80082614A688263036230BC7047002C0140F1
:1048D80038B590F83C30012B00F092800D46044624
:1048E800012380F83C30022380F83D30142A1ED87A
:1048F800DFE802F00B1D1D1D241D1D1D381D1D1D8B
:104908004B1D1D1D5F1D1D1D72000068FFF74EFC2D
:104918002268936943F0080393612268936923F03E
:10492800040393612268936929690B439361012306
:1049380084F83D30002084F83C0038BD0068FFF75B
:1049480081FF2268936943F4006393612268936945
:1049580023F48063936122689369296943EA0123F8
:104968009361E4E70068FFF76FFC2268D36943F0BE
:104978000803D3612268D36923F00403D361226852
:10498800D36929690B43D361D1E70068FFF7A2FC1B
:104998002268D36943F40063D3612268D36923F49E
:1049A8008063D3612268D369296943EA0123D3610B
:1049B800BDE70068FFF7C4FC2268536D43F00803A5
:1049C80053652268536D23F0040353652268536DC1
:1049D80029690B435365AAE70068FFF7E5FC2268DD
:1049E800536D43F4006353652268536D23F4806369
:1049F80053652268536D296943EA0123536596E795
:104A080002209AE770B4046A24F0010404628469FD
:104A1800056A174EB04219D0B0F1804F16D0A6F5EE
:104A28009436B04212D006F58066B0420ED006F534
:104A38008066B0420AD006F59436B04206D006F534
:104A48004066B04202D044F0010202E024F00304C0
:104A5800224322F0F0021B01DBB2134325F00A02C5
:104A680001F00A0111438361016270BC704700BF05
:104A7800002C014038B590F83C30012B58D00D4639
:104A88000446012380F83C30022380F83D30DAB137
:104A9800042A2AD0082A3AD0CB684A6809680068EC
:104AA800FFF712FD2268D36923F44063D3612268BB
:104AB800D369A96843EA0123D361012384F83D300F
:104AC800002084F83C0038BDCB684A680968006853
:104AD800FFF798FF2268936923F00C03936122681B
:104AE8009369A9680B439361E7E7CB684A6809684B
:104AF8000068FFF7A2FC2268936923F4406393617E
:104B080022689369A96843EA01239361D5E7CB68D2
:104B18004A6809680068FFF7BEFC2268D36923F079
:104B28000C03D3612268D369A9680B43D361C4E736
:104B38000220C8E710B4846824F47F4442EA0323BF
:104B48000B43234383605DF8044B704790F83C3077
:104B5800012B64D010B50446012380F83C300223B1
:104B680080F83D30026890682E4B034093600B68D4
:104B7800402B4AD013D9602B3DD01ED9702B28D09A
:104B8800B3F5005F30D1CB684A6889682068FFF7C1
:104B9800D1FF2268936843F48043936024E0102B8C
:104BA80006D004D9202B03D0302B01D01CE0DBB970
:104BB80019462068FFF7A2FC16E0502B14D1CA68EA
:104BC80049682068FFF726FC50212068FFF796FC0B
:104BD8000AE0CB684A6889682068FFF7ABFF22685B
:104BE800936843F077039360012384F83D300020F5
:104BF80084F83C0010BDCA6849682068FFF737FC94
:104C080060212068FFF77AFCEEE7CA6849682068E7
:104C1800FFF700FC40212068FFF770FCE4E7022062
:104C2800704700BF8800FEFF10B50468A26822F034
:104C380070024B68134323F4803323F007030A6898
:104C48001343A3604B68502B23D00BD9602B27D07C
:104C5800702B2CD10B698A68C9680068FFF76AFF56
:104C6800002010BD402B22D10B68052B21D00368F2
:104C78001C6A1A6A22F001021A620268936923F018
:104C8800F003096943EA0113936103681C62002079
:104C9800E7E70A6989680068FFF7BCFB0020E0E7DE
:104CA8000A6989680068FFF7E2FB0020D9E700205D
:104CB800D7E70120D5E790F83C30012B24D010B578
:104CC8000446012380F83C30022380F83D30FFF78A
:104CD800ABFF034688B92168CA6822F04002CA605F
:104CE8002168CA6822F48042CA60012284F83D2003
:104CF800002284F83C20184610BD012384F83D307A
:104D0800002284F83C20F6E702231846704710B4C6
:104D180001F01F01012303FA01F4036A23EA0403E3
:104D28000362036A8A40134303625DF8044B7047C9
:104D380010B5044601220068FFF7E9FF2268916870
:104D4800064B0B40062B06D0B3F5803F03D0136803
:104D580043F001031360002010BD00BF07000100ED
:104D680090F83C30012B28D030B4012380F83C3037
:104D7800022380F83D30026853689568104CA242BF
:104D880003D004F50064A24203D123F470034C68F5
:104D9800234323F070030C68234325F080048968BB
:104DA8002143536003689960012380F83D30002354
:104DB80080F83C30184630BC70470220704700BF6E
:104DC800002C014090F83C30012B3ED010B4012358
:104DD80080F83C30CB6823F440738A68134323F48B
:104DE80080634A68134323F400630A68134323F477
:104DF80080530A69134323F400534A69134323F485
:104E080080438A6A134323F470238A6943EA02437E
:104E180002680F4CA24203D004F50064A2420CD1F0
:104E280023F470034C6A43EA045323F08073CC697B
:104E3800234323F00073096A0B435364002380F86B
:104E48003C3018465DF8044B70470220704700BF9D
:104E5800002C014070477047704700002DE9F0486A
:104E68000446016883680269134342691343C269AF
:104E780013430868A24A024013430B602268536830
:104E880023F44053E1680B435360A16922689D4BAA
:104E98009A4201D0236A1943936823F430630B4381
:104EA80093602368984A934227D0984A934238D00F
:104EB800974A93424ED0974A934261D0964A93427A
:104EC80074D0904A934200F08A8010258D4A93420C
:104ED80000F0AA80E369B3F5004F00F03581082D92
:104EE80000F2BF81DFE815F07F0195019F01BD0148
:104EF800AA01BD01BD01BD01B40102F55842D2F8B5
:104F0800882002F00302032A09D8DFE802F002042D
:104F180081060125DAE70425D8E70825D6E7102514
:104F2800D4E702F5E632D2F8882002F00C020C2A07
:104F38000ED8DFE802F0070D0D0D090D0D0D6F0DF0
:104F48000D0D0B000025C1E70425BFE70825BDE7C7
:104F58001025BBE702F5E432D2F8882002F03002CF
:104F6800102A09D005D9202A56D0302A06D108257A
:104F7800ACE71AB90025A9E70425A7E71025A5E796
:104F880002F5E232D2F8882002F0C002402A09D0A5
:104F980005D9802A42D0C02A06D1082596E71AB931
:104FA800002593E7042591E710258FE702F5E03205
:104FB800D2F8882002F44072B2F5807F0BD007D96E
:104FC800B2F5007F2CD0B2F5407F06D108257DE7E9
:104FD8001AB900257AE7042578E7102576E702F55F
:104FE800C832D2F8882002F44062B2F5806F0BD044
:104FF80007D9B2F5006F15D0B2F5406F06D1082574
:1050080064E71AB9002561E704255FE710255DE725
:1050180002255BE7022559E7022557E7022555E7F0
:10502800022553E7022551E7082D00F21D81DFE82C
:1050380015F00C001B0114001B0111001B011B01C2
:105048001B0109004FF4004008E0FEF7ADFC28B949
:105058000020D9E0FEF7AEF8F9E73048626802EBC5
:105068004203834200F20281B0EB023F00F200816A
:10507800082D66D8DFE805F00565206530656565AB
:105088005800FEF791FC0025070E060262685008DA
:105098002B4616EB000B47F1000C58466146FCF70F
:1050A80051F803462846A3F540711D4A914200F283
:1050B800E1802268D360A7E0560800252B46DFF878
:1050C80064B04FF0000C1BEB06004CF10001FCF73C
:1050D80039F803462846E6E7FEF76CF80025070E80
:1050E8000602626850082B4616EB000B47F1000CCD
:1050F80058466146FCF726F803462846D3E700BF22
:10510800F369FFEF00800040003801400044004090
:1051180000480040004C0040005000400024F400CB
:10512800FFFC0F00000024F45008002700252B4640
:1051380010F5000047F10001FCF704F80346284683
:10514800B1E701200023AEE7082D49D8DFE805F0D4
:10515800051E2948344848483F00FEF725FC626888
:10516800530803EB4003B3FBF2F39BB20020A3F117
:1051780010014FF6EF7291427ED89AB222F00F02D8
:10518800C3F3420313432268D3603DE0FEF71EFCDD
:105198006268530803EB4003B3FBF2F39BB20020B1
:1051A800E5E76268530803F1F47303F59043B3FB32
:1051B800F2F39BB20020DAE7FDF7FCFF62685308C0
:1051C80003EB4003B3FBF2F39BB20020CFE7626826
:1051D800530803F58033B3FBF2F39BB20020C6E714
:1051E80001200023C3E7FEF7DFFB636800EB5302EF
:1051F800B2FBF3F292B20020A2F110014FF6EF7366
:1052080099423BD82368DA60002222666266BDE8CC
:10521800F088FEF7DBFB636800EB5302B2FBF3F2A6
:1052280092B20020E8E763685A0802F5740202F5B2
:105238001052B2FBF3F292B20020DDE7FDF7BAFF9D
:10524800636800EB5302B2FBF3F292B20020D3E79B
:1052580063685A0802F50042B2FBF3F292B20020EA
:10526800CAE701200022C7E70120CDE70120CBE7EC
:105278000120C9E70120C7E70120C5E70120C3E7EE
:10528800436A13F0010F06D00268536823F4003311
:10529800816A0B435360436A13F0020F06D0026819
:1052A800536823F48033C16A0B435360436A13F095
:1052B800040F06D00268536823F48023016B0B4364
:1052C8005360436A13F0080F06D00268536823F44A
:1052D8000043416B0B435360436A13F0100F06D031
:1052E8000268936823F48053816B0B439360436A8D
:1052F80013F0200F06D00268936823F40053C16BA3
:105308000B439360436A13F0400F0AD00268536856
:1053180023F48013016C0B435360036CB3F5801FB7
:105328000BD0436A13F0800F06D00268536823F449
:105338000023816C0B43536070470268536823F461
:10534800C003416C0B435360EBE72DE9F041054680
:105358000F4616469846069C2B68DB6937EA030316
:105368000CBF01230023B3421CD1B4F1FF3FF3D09B
:10537800FCF7AAF8A0EB0800A04201D8002CEBD15A
:105388002A68136823F4D07313602A68936823F09B
:105398000103936020236B67AB67002385F87030A7
:1053A800032000E00020BDE8F08130B583B004465A
:1053B8000023C367FCF788F8054623681B6813F0C9
:1053C800080F0CD123681B6813F0040F15D1202394
:1053D8006367A367002084F8700003B030BD6FF0E6
:1053E8007E430093034600224FF400112046FFF746
:1053F800ACFF0028E6D00320EFE76FF07E43009370
:105408002B4600224FF480012046FFF79EFF00281C
:10541800DDD00320E1E768B310B50446436F03B35A
:10542800242363672268136823F00103136020466E
:10543800FFF714FD012813D0636ABBB922685368CB
:1054480023F4904353602268936823F02A039360FF
:105458002268136843F0010313602046FFF7A5FF95
:1054680010BD80F8703004F0F7FCD9E72046FFF74C
:1054780007FFE3E7012070472DE9F04184B00746B4
:105488001F4D40232B704FF4FA76029601240194A5
:10549800009523461F223C21FDF7C8FC1F232B70D3
:1054A800029601940095234620223C213846FDF7B8
:1054B800BDFCE0232B70029601940095234624221C
:1054C8003C213846FDF7B2FC4FF0000885F8008013
:1054D800029601940095234625223C213846FDF783
:1054E800A5FC85F8008002960194009523462622A3
:1054F8003C213846FDF79AFC04B0BDE8F08100BFB6
:10550800BCB6002000B58BB000230793089309931D
:105518000193029303930493059306933448354A01
:1055280002604FF4802242608360C36001220261FE
:105538000421416103764376C16180F820304FF43D
:10554800D86181624FF48061C16280F83020436382
:1055580080F83830FBF7D2FF002837D10AA900239A
:1055680041F80C3D2248FCF705FD002831D1224BBB
:10557800019306230293032303937F2304930423B5
:1055880005930023069301A91948FCF71DF918BBD8
:105598001A4B01930C23029301A91548FCF714F93F
:1055A800E8B9154B01931223029301A91048FCF79F
:1055B8000BF9B8B9114B01931823029301A90C48B0
:1055C800FCF702F988B90BB05DF804FB00F0BAFFEC
:1055D800C4E700F0B7FFCAE700F0B4FFD8E700F06F
:1055E800B1FFDEE700F0AEFFE4E700F0ABFFEAE76B
:1055F800440E002000000450000052C78000501DD7
:1056080000B587B00023009301930293039304939A
:1056180005932F482F4A02604FF48022426083602E
:10562800C360012202610421416103764376C161AE
:1056380080F820304FF4D86181624FF48061C162F4
:1056480080F83020436380F83830FBF757FF002894
:105658002ED1214B009306230193032302937F232A
:105668000393042304930023059369461848FCF721
:10567800ABF800BB194B00930C23019369461448FF
:10568800FCF7A2F8D0B9144B009312230193694692
:105698000F48FCF799F8A0B9114B00931823019310
:1056A80069460B48FCF790F870B907B05DF804FB41
:1056B80000F048FFCDE700F045FFDBE700F042FFD0
:1056C800E1E700F03FFFE7E700F03CFFEDE700BF50
:1056D800980D002000010450002090364000201949
:1056E8002000F01400B587B00023009301930293C3
:1056F8000393049305932F482F4A02604FF48022A6
:1057080042608360C3600122026104214161037623
:105718004376C16180F820304FF4D86181624FF43C
:105728008061C16280F83020436380F83830FBF72D
:10573800E5FE00282ED1214B009306230193032375
:1057480002937F230393042304930023059369465C
:105758001848FCF739F800BB194B00930C23019348
:1057680069461448FCF730F8D0B9144B009312235B
:10577800019369460F48FCF727F8A0B9114B00932D
:105788001823019369460B48FCF71EF870B907B057
:105798005DF804FB00F0D6FECDE700F0D3FEDBE7B2
:1057A80000F0D0FEE1E700F0CDFEE7E700F0CAFE2A
:1057B800EDE700BFA80E002000020450000052C709
:1057C8000800900C1000C01070B58EB0044600237D
:1057D80009930A930B930C930D930368814A9342A0
:1057E80008D0814A934269D0804A934200F0B98038
:1057F8000EB070BD7E4A136801331360012B4FD081
:105808007C4BDA6C42F00102DA64DA6C02F00102D5
:105818000192019ADA6C42F00402DA64DA6C02F05E
:1058280004020292029ADA6C42F00202DA64DB6C39
:1058380003F002030393039B842309930B260A9620
:1058480009A94FF09040FCF7B3FE102309930A967C
:1058580000250B9509A96848FCF7AAFE02230993BD
:105868000A960B9509A96548FCF7A2FE6448654BA2
:10587800036045608560C560802303614FF48073D1
:1058880043614FF4806383612023C3614FF48053E5
:105898000362FCF773FD70B9594BE3649C62A7E798
:1058A800544BDA6C42F40052DA64DB6C03F40053B4
:1058B8000093009BA4E700F045FEEDE74C4A13680F
:1058C80001331360012B3ED04A4BDA6C42F00102DF
:1058D800DA64DA6C02F001020592059ADA6C42F099
:1058E8000402DA64DB6C03F004030693069B0323CB
:1058F80009930B250A9509A94FF09040FCF758FE2B
:10590800102309930A9500250B9509A93A48FCF735
:105918004FFE3D483D4B036045608560C560802370
:1059280003614FF4807343614FF4806383612023E4
:10593800C3614FF440530362FCF720FD70B9324B4A
:10594800E3649C6254E72B4BDA6C42F40052DA644D
:10595800DB6C03F400530493049BB5E700F0F2FDFD
:10596800EDE7234A136801331360012B2CD0214B38
:10597800DA6C42F00402DA64DB6C03F00403089387
:10598800089B0C2309930B230A9309A91A48FCF7CF
:105998000FFE1F481F4B0360002343608360C360F2
:1059A800802303614FF4807343614FF48063836104
:1059B8002023C3614FF400530362FCF7DFFC70B986
:1059C800134BE3649C6213E70A4BDA6C42F400520F
:1059D800DA64DB6C03F400530793079BC7E700F016
:1059E800B1FDEDE70000045000010450000204502E
:1059F800B4010020001002400008004800040048DC
:105A08000C0F002008000240540F00201C00024028
:105A1800FC0D00203000024000B58BB0242200218C
:105A280001A805F047F80D480D4B0360FCF7B0FBE3
:105A380070B90023019302930393049305931022F2
:105A480001A90648FCF7E6FB28B90BB05DF804FB92
:105A580000F078FDEDE700F075FDF6E79C0F0020FB
:105A68000074004000B589B00023039304930593A4
:105A7800069307930268124B9A4202D009B05DF868
:105A880004FB03F5CE339A6D42F000529A659A6D85
:105A980002F000520192019ADA6C42F00102DA64D3
:105AA800DB6C03F001030293029B2023039303237F
:105AB800049303A94FF09040FCF77AFDDEE700BF9E
:105AC8000074004000B583B0124B9A6C42F001029A
